:020000040000FA
:100000000C9460010C9491010C9491010C94910159
:100010000C9491010C9491010C9491010C94910118
:100020000C9491010C9495140C9495140C949514C3
:100030000C9491010C9491010C9491010C949101F8
:100040000C9491010C9491010C9491010C949101E8
:100050000C9491010C9491010C9491010C94EB136C
:100060000C9491010C945F140C9435140C94910130
:100070000C9491010C9491010C9491010C949101B8
:100080000C9491010C9491010C9491010C949101A8
:100090000C9491010C9491010C9491010C94910198
:1000A0000C9491010C9491010C9491010C94910188
:1000B0000C9491010C9491010C9491010C94910178
:1000C0000C9491010C9491010C9491010C94910168
:1000D0000C9491010C9491010C9491010C94910158
:1000E0000C9491010C9494030C948D0F0C942302A6
:1000F0000C94EE010C94FE020C941B020C94FA0179
:100100000C945F0F0C9411020C943A030C940702A8
:100110000C9402100C9439100C941F020C942802B9
:100120000C94E1030C9411150C94D30D0C94061B44
:100130000C9403020C94A50F0C9418100C94150247
:100140000C94DD0D0C94720D0C94FD0D0C942B038E
:100150000C940D0E0C94F6010C94690F0C94A60FE0
:100160000C946C0B0C94E8010C944E030C945C03FF
:100170000C94FD010C94D40D0C9429020C94F20102
:100180000C940D020C942A0E0C942D027C3C3E5EC5
:100190002B3D3F2F5B5D3B2C2A225C0000002100A1
:1001A000240027002A002D00300033000101000048
:1001B000040107010A0100000A0B02090C0D0E08D8
:1001C0000703040100000000000000000000000020
:1001D000000000000000000000000000000000001F
:1001E00000001211100000000000000000000000DC
:1001F00000000000000000000000000000002000DF
:100200002300260029002C002F00320000010000EE
:1002100003010601090100002200250028002B002F
:100220002E003100340002010000050108010B011D
:1002300005050505070508080808020202020A0A62
:100240000808040404040101010101010101030380
:10025000030303030303040707070C0C0C0C0C0C2B
:100260000C0C0202020206060606060606060B0B28
:100270000B0B0B0B0B0B0102102020080810204069
:10028000102040800201020108040201010204085A
:1002900010204080804020100804020180040201E8
:1002A0008040201008040201080402010102040831
:1002B0001020408001020408102040801115061B08
:1002C00011241FBECFEFD1E2DEBFCDBF00E00CBFD7
:1002D00013E0A0E0B2E0E4E3FFE300E00BBF02C004
:1002E00007900D92A632B107D9F726E0A6E2B3E057
:1002F00001C01D92A03BB207E1F711E0CFE5D1E0CC
:1003000000E006C021970109802FFE010E94441BD6
:10031000CE35D10780E00807A9F70E94FF150C949D
:10032000881F0C940000CF93DF93FC01828193819E
:10033000909375068093740684819581A681B78118
:100340008093760690937706A0937806B09379060B
:1003500080859185A285B38580937A0690937B06EC
:10036000A0937C06B0937D06DF011C96CF014996D1
:10037000CEE7D6E02D912993A817B907D9F7818D3B
:10038000928D90938C0680938B0682E796E0DF91A6
:10039000CF9108958150823108F05AC0E82FF0E0E3
:1003A0008827EA52FE4F8F4F0C94441BF601FA0146
:1003B000E801EE01F2012802FD01030207020D022D
:1003C000110215021B021F022802230229022D021C
:1003D000809180008F7780938000089580918000C5
:1003E0008F7DF9CF80918000877FF5CF84B58F779F
:1003F00084BD089584B58F7DFBCF8091B0008F7749
:100400008093B00008958091B0008F7DF9CF8091E6
:1004100090008F77809390000895809190008F7D59
:10042000F9CF80919000877FF5CF8091A0008F77E2
:100430008093A00008958091A0008F7DF9CF8091D6
:10044000A000877FF5CF809120018F7780932001D6
:100450000895809120018F7DF9CF80912001877FC1
:10046000F5CF1F93CF93DF93282F30E0F901EA54A3
:10047000FE4F8491F901EA58FD4FD491F901E05DF6
:10048000FD4FC491CC23A9F0162F81110E94CA01FF
:10049000EC2FF0E0EE0FFF1FEA5EFD4FA591B49147
:1004A0008FB7F894EC91111108C0D095DE23DC933E
:1004B0008FBFDF91CF911F910895DE2BF8CFCF939F
:1004C000DF9390E0FC01EA58FD4F2491805D9D4F41
:1004D000FC0184918823C9F090E0880F991FFC01EA
:1004E000E456FE4FA591B491FC01EA5EFD4FC59123
:1004F000D49161110DC09FB7F8948C9120958223FF
:100500008C938881282328839FBFDF91CF91089502
:10051000623051F49FB7F8943C91822F80958323E9
:100520008C93E8812E2BEFCF8FB7F894EC912E2B84
:100530002C938FBFEACF3FB7F894809184039091BA
:100540008503A0918603B091870326B5A89B05C0BB
:100550002F3F19F00196A11DB11D3FBFBA2FA92F42
:10056000982F8827BC01CD01620F711D811D911D3F
:1005700042E0660F771F881F991F4A95D1F70895AB
:100580008F929F92AF92BF92CF92DF92EF92FF92A3
:100590004B015C010E949B026B017C010E949B024B
:1005A0006C197D098E099F09683E7340810591058C
:1005B000A8F321E0821A9108A108B10888EEC80EBC
:1005C00083E0D81EE11CF11C81149104A104B10444
:1005D00029F7FF90EF90DF90CF90BF90AF909F9062
:1005E0008F9008952FB7F8946091800370918103E4
:1005F00080918203909183032FBF0895AF92BF92A1
:10060000CF92DF92EF92FF920F931F93CF93DF93DE
:100610006C017B018B01040F151FEB015E01AE180D
:10062000BF08C017D10759F06991D601ED91FC912F
:100630000190F081E02DC6011995892B79F7C5014C
:10064000DF91CF911F910F91FF90EF90DF90CF90AE
:10065000BF90AF900895FC01538D448D252F30E05D
:10066000842F90E0821B930B541710F0CF960895BF
:1006700001970895FC01918D828D981761F0A28DEC
:10068000AE0FBF2FB11D5D968C91928D9F5F9F73B2
:10069000928F90E008958FEF9FEF0895FC01918D68
:1006A000828D981731F0828DE80FF11D858D90E0D5
:1006B00008958FEF9FEF0895FC01918D228D892F72
:1006C00090E0805C9F4F821B91098F73992708955A
:1006D0008AE895E00E945C0321E0892B09F420E080
:1006E000822F0895FC01A48DA80FB92FB11DA35A24
:1006F000BF4F2C91848D90E001968F739927848F42
:10070000A689B7892C93A089B1898C918370806464
:100710008C93938D848D981306C00288F389E02D05
:1007200080818F7D80830895EF92FF920F931F93B6
:10073000CF93DF93EC0181E0888F9B8D8C8D981394
:100740001AC0E889F989808185FF15C09FB7F894A0
:10075000EE89FF896083E889F989808183708064EC
:1007600080839FBF81E090E0DF91CF911F910F9137
:10077000FF90EF900895F62E0B8D10E00F5F1F4F46
:100780000F731127E02E8C8D8E110CC00FB607FC55
:10079000FACFE889F989808185FFF5CFCE010E94E3
:1007A0007203F1CFEB8DEC0FFD2FF11DE35AFF4FDC
:1007B000F0829FB7F8940B8FEA89FB898081806271
:1007C000CFCFCF93DF93EC01888D8823B9F0AA892E
:1007D000BB89E889F9898C9185FD03C0808186FDFC
:1007E0000DC00FB607FCF7CF8C9185FFF2CF80814B
:1007F00085FFEDCFCE010E947203E9CFDF91CF914B
:10080000089580E090E0892B29F00E94680381110F
:100810000E94000080E090E0892B49F080E090E0A9
:10082000892B29F00E94000081110E94000080E0C5
:1008300090E0892B49F080E090E0892B29F00E941C
:10084000000081110E94000080E090E0892B49F0B7
:1008500080E090E0892B29F00E94000081110C9427
:10086000000008958FB7F894809167038FBF0895B3
:1008700061E0FC0184810E94310280916603811154
:100880001092660308958EBD00000DB407FEFDCFE3
:100890008EB508958FEF0C9443040F931F93CF935D
:1008A000DF93EC010E94F2028B010E944A048F3F09
:1008B00069F00E94F202601B710B6C177D07A8F3B0
:1008C00080E0DF91CF911F910F91089581E0F9CFE2
:1008D0008CBD9DBD0895CF93DF93EC01809166039D
:1008E000811109C081E08093660380912706909171
:1008F00028060E94680460E08C81DF91CF910C94FF
:1009000031028F929F92AF92BF92FF920F931F93EB
:10091000CF93DF93EC01F62E49015A018E81882393
:1009200089F08F8198859C012F5F3F4F38872F83F7
:100930008230924018F40E944A04F3CFCE010E9404
:1009400038041E82CE010E946B048CE291E00E946A
:100950004D048F2D80640E94430408E110E0D5010E
:10096000C401002E04C0B695A795979587950A9463
:10097000D2F70E94430408501109083F8FEF18076F
:1009800071F785E9FF2021F028E087E8F2128FEF68
:100990000E94430410E00E944A048A8787FF04C033
:1009A0001F3F11F01F5FF7CFDF91CF911F910F9184
:1009B000FF90BF90AF909F908F900895AF92BF929D
:1009C000CF92DF92EF92FF920F931F93CF93DF931B
:1009D000EC016901C801820F931F8130924050F5EC
:1009E0008E81882379F088819981AA81BB818417BF
:1009F0009507A607B70731F48F819885C816D906E1
:100A000008F042C0488359836A837B838B85833097
:100A100039F089E0440F551F661F771F8A95D1F77B
:100A20009A01AB0161E1CE010E948104882389F023
:100A300083E08D83CE010E94380480E0DF91CF9166
:100A40001F910F91FF90EF90DF90CF90BF90AF90EC
:100A500008950E94F2025B010E944A048A878F3F38
:100A600069F40E94F2026A197B096D327140A0F3A9
:100A70008FE08D83CE010E943804DCCF8E3F89F455
:100A800018861F8281E08E838F8198858C159D0545
:100A900050F40E944A048F819885019698878F832D
:100AA000F3CF8DE0E6CF6701E00EF11E0E944A040D
:100AB000F60181936F01EE15FF05C1F78F819885CF
:100AC000080F191F18870F838985882319F00115CE
:100AD0001240A0F08E81882389F08F8198859C0137
:100AE0002F5F3F4F38872F838230924018F40E9447
:100AF0004A04F3CFCE010E9438041E8281E09ECFCB
:100B0000CF92DF92EF92FF920F93CF93DF93EC019E
:100B1000690182E1411551056105710599F08B85E7
:100B2000833039F089E0440F551F661F771F8A957F
:100B3000D1F79A01AB0168E1CE010E9481048823BC
:100B400019F084E08D832DC08EEF0E94430476015E
:100B50008EEFD81AF70181917F010E944304EC14B3
:100B6000FD04C1F78FEF0E9443048FEF0E944304FE
:100B70000E944A048A878F71853071F4011116C072
:100B8000CE010E94380481E0DF91CF910F91FF9058
:100B9000EF90DF90CF90089581E18D83CE010E9488
:100BA0003804CE010E94380480E0EECF88E592E060
:100BB0000E944D04811102C085E1C4CF20E030E0E5
:100BC000A9016DE0CE010E948104882311F084E127
:100BD000B9CF0E944A048111FACFD2CF0F9340912E
:100BE000690350916A0360916B0370916C03411526
:100BF00051056105710599F0082F28E833E08091CF
:100C00008805909189050E948005882349F01092FB
:100C1000690310926A0310926B0310926C0381E0D7
:100C20000F9108950F93CF93C82F8091680381117E
:100C300005C0C1E08C2FCF910F9108954091000223
:100C40005091010260910202709103020C2F28E87A
:100C500033E080918805909189050E94800581117B
:100C600002C0C0E0E7CFCC2321F381E00E94EE0573
:100C70008823B9F310926803DDCF8F929F92AF92D1
:100C8000BF92EF92FF920F931F93CF934B015C01A2
:100C9000C42F8091000290910102A0910202B091B4
:100CA000030288159905AA05BB0551F181E00E9450
:100CB000120681110BC080E0CF911F910F91FF9020
:100CC000EF90BF90AF909F908F90089588E8E82EA6
:100CD00083E0F82E00E012E030E020E0B501A4014E
:100CE00080918805909189050E94DE04882319F37C
:100CF0008092000290920102A0920202B09203023E
:100D0000409168034C2B4093680381E0D5CF8F92CC
:100D10009F92AF92BF92CF92DF92EF92FF92CF93CA
:100D200029E236E03093890520938805882309F469
:100D30006DC040E060E070E0CB010E943D06811193
:100D40000BC080E0CF91FF90EF90DF90CF90BF90ED
:100D5000AF909F908F900895809146058F7789F787
:100D60008091520590915305A0915405B09155057D
:100D700084369105A105B10520F3C0904E05D090B1
:100D80004F05E0905005F0905105C114D104E104E5
:100D9000F104B9F240E0C701B6010E943D06882384
:100DA00081F280919303909194038115924049F6CA
:100DB000A0919803AA2329F260919603709197035A
:100DC0006115710509F4BDCF20919503222309F423
:100DD000B8CFA09347062093390690E080E030E03A
:100DE000E1E0F0E0C82FAF01082E02C0440F551F0C
:100DF0000A94E2F72417350769F041E0480F01969D
:100E00008930910579F7409342069BCFC12CD12CB4
:100E10007601C0CF8093420620919E0330919F03BC
:100E200050E040E02115310541F42091AC033091B0
:100E3000AD034091AE035091AF0320933A06309337
:100E40003B0640933C0650933D0646015701860EF3
:100E5000971EA11CB11C8092480690924906A09250
:100E60004A06B0924B06E0919903F0919A03F093F1
:100E70004E06E0934D06B0E00E944C1BDC01CB0116
:100E8000880D991DAA1DBB1D80934F069093500697
:100E9000A0935106B093520625E0EE0FFF1F2A954E
:100EA000E1F7E150FE4FEF2FFF27E6958E0F9F1FD2
:100EB000A11DB11D8093430690934406A09345065F
:100EC000B093460680909B0390909C03B12CA12C7C
:100ED0008114910441F48090A8039090A903A090FC
:100EE000AA03B090AB03C81AD90AEA0AFB0AC80CD5
:100EF000D91CEA1CFB1C04C0F694E794D794C79451
:100F0000CA95D2F7C0923E06D0923F06E0924006C4
:100F1000F092410685EFC8168FE0D806E104F1048F
:100F200028F48CE080934C0681E00CCF80E125EF23
:100F3000C2162FEFD206E104F104A0F38091B403AE
:100F40009091B503A091B603B091B70380934F067B
:100F500090935006A0935106B093520680E2E2CFE0
:100F60004F925F926F927F928F929F92AF92BF92B9
:100F7000CF92DF92EF92FF920F931F93CF93DF9365
:100F8000EC01423051056105710590F480E0DF917C
:100F9000CF911F910F91FF90EF90DF90CF90BF9076
:100FA000AF909F908F907F906F905F904F9008953B
:100FB00089859A85AB85BC850196A11DB11D8417D5
:100FC0009507A607B70710F3CB88DC88ED88FE8865
:100FD0008F89803109F042C0BB27A72F962F852F1C
:100FE000480159012A013B01C80ED91EEA1EFB1E09
:100FF0008091000290910102A0910202B09103023F
:10100000C816D906EA06FB0699F58F898031C1F525
:10101000B301A201552766277727440F551F48576C
:101020005C4FFA0191828082809168038160809395
:1010300068038A89823080F08D819E81AF81B88576
:101040008C0D9D1DAE1DBF1D8093690390936A0397
:10105000A0936B03B0936C0381E099CFDB01CA01CD
:10106000E7E0B695A79597958795EA95D1F7B8CF1C
:1010700040E0C701B6010E943D068111C6CF86CF70
:10108000B301A2014F77552766277727440F551FD5
:10109000440F551F48575C4FFA0180829182A2820B
:1010A000B382C2CF8F929F92AF92BF92CF92DF92C4
:1010B000EF92FF920F931F93CF93DF93FC018185F3
:1010C0009285A385B4850196A11DB11D841795074E
:1010D000A607B70770F480E0DF91CF911F910F91C1
:1010E000FF90EF90DF90CF90BF90AF909F908F9048
:1010F000089583889488A588B6888789803189F582
:10110000BB27A72F962F852FE9016A017B018F014D
:10111000BC01CD01680D791D8A1D9B1D80900002C8
:1011200090900102A0900202B090030286169706EA
:10113000A806B90601F5F8018789803111F5DD248B
:10114000EE24FF24F601EE0FFF1FE857FC4F8081CD
:101150009181B0E0A0E088839983AA83BB8381E07A
:10116000BBCFDB01CA01C7E0B695A79597958795D8
:10117000CA95D1F7C9CF40E00E943D068111DBCF6F
:10118000AACFE894C7F8DD24EE24FF24F601EE0F81
:10119000FF1FEE0FFF1FE857FC4F80819181A28156
:1011A000B381BF70D8CF4F925F926F927F92AF9210
:1011B000BF92CF92DF92EF92FF920F931F93CF9344
:1011C000DF9300D01F92CDB7DEB78C0149835A83DD
:1011D0006B837C835901C12CD12C7601412C82E098
:1011E000582E612C712C49815A816B817C819E0122
:1011F0002F5F3F4FC8010E945208882339F1F80140
:101200008585A301920104C0220F331F441F551F7F
:101210008A95D2F7DA01C901C80ED91EEA1EFB1E53
:1012200049815A816B817C818789803111F188EFF6
:101230009FEFAFEFBFE0481759076A077B0798F2A7
:10124000F501C082D182E282F38281E00F900F909B
:101250000F900F90DF91CF911F910F91FF90EF9022
:10126000DF90CF90BF90AF907F906F905F904F9046
:10127000089588EF9FEFA0E0B0E0DDCFCF93DF933C
:10128000FC012581222321F080E0DF91CF91089598
:10129000EC0180914C06803159F582E08583178AF4
:1012A000108E118E128E80914D0690914E06B0E0F8
:1012B000A0E025E0880F991FAA1FBB1F2A95D1F730
:1012C000838B948BA58BB68B85E396E09C8F8B8F5D
:1012D00081E08C831E821F82188619861A861B86DF
:1012E0001C861D861E861F86188A198A1A8ACDCFEB
:1012F000803251F683E0858340914F06509150062D
:101300006091510670915206478B508F618F728F9A
:101310009F012D5E3F4F85E396E00E94D308811127
:10132000D3CFB2CF8F929F92AF92BF92CF92DF92E4
:10133000EF92FF920F931F93CF93DF93EC018D8178
:1013400081110EC080E0DF91CF911F910F91FF902E
:10135000EF90DF90CF90BF90AF909F908F900895C7
:101360000B891C892D893E89041715072607370725
:1013700048F34A015B01823031F48A869B86AC8651
:10138000BD8681E0E0CF81149104A104B10449F449
:101390001E821F82188619861A861B861C861D8649
:1013A000F0CF0A851B852C853D85EB8DFC8D8585D1
:1013B00090E00996B901A8014150510961097109EC
:1013C000082E04C076956795579547950A94D2F7ED
:1013D00075016401E1E0CE1AD108E108F10804C00A
:1013E000F694E794D794C7948A95D2F7C416D50695
:1013F000E606F70620F0012B022B032B11F58F894F
:10140000988DA98DBA8D8E839F83A887B9878E0109
:101410000A5F1F4FC114D104E104F10409F4ADCFF8
:101420004E815F816885798598018B8D9C8D0E94A6
:10143000520891E0C91AD108E108F1088111EACFF8
:1014400081CFC41AD50AE60AF70AE1CF3F924F923C
:101450005F926F927F928F929F92AF92BF92CF9244
:10146000DF92EF92FF920F931F93CF93DF93CDB74D
:10147000DEB72C970FB6F894DEBF0FBECDBF5C0170
:10148000DC015B968D909C905C9716964D905D90DC
:101490006D907C901997411451046104710409F412
:1014A00068C0BFEF4B1A5B0A6B0A7B0A312CF40150
:1014B00081859285A385B4859C01AD012F5F3F4F47
:1014C0004F4F5F4F29873A874B875C8773016201D3
:1014D0001D821E821F821886F40181859285A38554
:1014E000B4852D813E814F815885281739074A07D9
:1014F0005B0708F056C089859A85AB85BC858C153D
:101500009D05AE05BF0550F482E0C82ED12CE12C1C
:10151000F12C92E0492E512C612C712C9E012F5FF1
:101520003F4FB701A601C4010E9452088823C9F1A8
:1015300089819A81AB81BC81892B8A2B8B2B09F104
:10154000260137019FEF491A590A690A790A2D8144
:101550003E814F8158852F5F3F4F4F4F5F4F2D8307
:101560003E834F8358873FEFC31AD30AE30AF30A37
:10157000B3CFF40140805180628073803324339470
:1015800096CFC414D504E604F70409F70FEF1FEF54
:101590002FEF3FE0B701A601C4010E94B0078111FF
:1015A00019C080E02C960FB6F894DEBF0FBECDBFF9
:1015B000DF91CF911F910F91FF90EF90DF90CF902F
:1015C000BF90AF909F908F907F906F905F904F9063
:1015D0003F900895D50116964D915D916D917C9146
:1015E0001997411551056105710539F0970186017B
:1015F000C4010E94B0078823A1F2D5011696CD92AE
:10160000DD92ED92FC921997332051F0D701C6017B
:101610000196A11DB11DF40180839183A283B38340
:10162000F5018789908DA18DB28D892B8A2B8B2B0B
:1016300039F48481C78AD08EE18EF28E80688483EB
:10164000F50184818062848381E0ACCF1F93CF93C6
:10165000DF93FC0125812223D1F1162FEC01848137
:1016600087FF2AC0668577858089918941E00E943D
:101670003D06882361F1EA8980E2E89FF0011124A8
:10168000E857FC4F309719F18D81823040F48B89F7
:101690009C89AD89BE89848F958FA68FB78F8F89DE
:1016A000988D938F828F8F89988DA98DBA8DB58BE8
:1016B000A48B8C818F778C83111103C08C818F7EDA
:1016C0008C83812FDF91CF911F910C94120680E0C3
:1016D000DF91CF911F910895FF920F931F93CF93A6
:1016E000DF93EC018D81813041F090E080E0DF916B
:1016F000CF911F910F91FF9008958C8181FFF5CFBD
:1017000082FD1BC00091880510918905C8010E94C7
:101710006B040E944A04F82EC8010E9438048FEF1F
:10172000F812E3CF8C8185FF1BC060E0CE010E94E0
:10173000260B8C818F7D8C83D8CF4B895C896D89FA
:101740007E898A859B85AC85BD8584179507A6070C
:10175000B707C1F2CE010E9492098111D3CFC5CF44
:101760004091690350916A0360916B0370916C031F
:10177000452B462B472B21F080E00E94EE05B5CF8C
:1017800080618C832A853B85317080E092E0821BEA
:10179000930BADCFCF93DF93EC0161E00E94260B5A
:1017A000882311F01D8281E0DF91CF9108952F925F
:1017B0003F924F925F926F927F928F929F92AF92E1
:1017C000BF92CF92DF92EF92FF920F931F93CF932E
:1017D000DF9300D01F921F92CDB7DEB77C015B0173
:1017E000342E5D83DC0115968C911597813009F0BC
:1017F000CEC014962C9021FECAC022FCB4C0C32CCB
:10180000DD8022947FE027222094B22DB1702B2E10
:10181000D7011A964D915D916D917C911D97C114E0
:10182000D10409F428C15B968D919C915C97FC01D1
:1018300074807A948A019B0169E036952795179503
:1018400007956A95D1F770228A011170711020C036
:1018500001151105E9F416964D915D916D917C91FC
:101860001997411551056105710509F099C0579601
:101870008D919D910D90BC91A02D0097A105B10572
:1018800009F0B0C0C7010E94260A882309F47FC06E
:1018900080E092E0801B910B46018C159D0508F4B9
:1018A0004C01D7015B964D915C915C9716968D919A
:1018B0009D910D90BC91A02D0297A109B109FA014B
:1018C000258504C0880F991FAA1FBB1F2A95D2F730
:1018D0004685578560897189840F951FA61FB71F9C
:1018E0009C01AD01270D311D411D511D29013A01FA
:1018F000811432E0930609F07BC080910002909140
:101900000102A0910202B091030284159505A6057B
:10191000B70559F48FEF9FEFDC018093000290939D
:101920000102A0930202B0930302022D9501B301BC
:10193000A20180918805909189050E9480058823E5
:1019400031F19EEFB91AC818D908F701828593853D
:10195000A485B585880D991DA11DB11D828793872A
:10196000A487B58755CFF70143895489658976895E
:1019700082859385A485B585481759076A077B0733
:1019800009F43DCFC7010E949209811138CF81E04F
:1019900090E0D70113969C938E93129780E007C036
:1019A0009E012F5F3F4F0E945208811102C090E0BC
:1019B00079C089819A81AB81BC81F701238D348DF7
:1019C000F901278948EF5FEF60E070E0203121F0F6
:1019D00048EF5FEF6FEF7FE084179507A607B70723
:1019E00008F050CFF70186839783A087B18750CF47
:1019F0000115110599F5D7011A964D915D916D91DB
:101A00007C911D9753968D919D910D90BC91A02D29
:101A1000481759076A077B0708F181E00E94120600
:101A2000882309F4B4CF40920002509201026092E0
:101A300002027092030280916803816080936803C0
:101A4000C80188579C4FD5019C01280D391DFC0108
:101A50002E173F0759F04D914193FACF41E0C30152
:101A6000B2010E943D068111EBCF91CF281B390BAB
:101A7000A20EB31E68CFF70183899489A589B68920
:101A800084179507A607B70738F48481438B548BD6
:101A9000658B768B80688483F701848183FD1AC00F
:101AA000832D9D810F900F900F900F900F90DF91DD
:101AB000CF911F910F91FF90EF90DF90CF90BF904B
:101AC000AF909F908F907F906F905F904F903F90DE
:101AD0002F90089561E0C7010E94260B882309F426
:101AE00056CFDECFCF93DF931F92CDB7DEB769839A
:101AF00041E050E0BE016F5F7F4F0E94D70B0F9017
:101B0000DF91CF910895FC01DB0112968D919C919C
:101B10001397938382838BE292E091838083149660
:101B20008C911497848315968C91159785831696BE
:101B30004D915D916D917C91199746835783608794
:101B400071871A964D915D916D917C911D97428799
:101B50005387648775871E964D915D916D917C9139
:101B6000519746875787608B718B52968C9152970D
:101B7000828B53964D915D916D917C915697438BDD
:101B8000548B658B768B57964D915D916D917C91C1
:101B90005A97478B508F618F728F5B968D919C9176
:101BA000948F838F08950895FC01818D928D009705
:101BB00019F061E00C94260B0895DC015996ED9123
:101BC000FC913097B9F083899489A589B6894285BB
:101BD000538564857585841B950BA60BB70B811502
:101BE00020E89207A105B10538F08FEF9FE7A0E04C
:101BF000B0E0089590E080E00895DC0159968D9161
:101C00009C91009739F0DC01ED91FC910480F58105
:101C1000E02D199490E080E00895CF93DF93EC01DC
:101C2000E98DFA8D309749F481E090E09B838A83B7
:101C300090E080E0DF91CF91089513821282898D28
:101C40009A8D0E94D70BE98DFA8D22813381232B47
:101C500059F7F0CFCF93DF931F92CDB7DEB76983EB
:101C6000DC01ED91FC910280F381E02D41E050E038
:101C7000BE016F5F7F4F19950F90DF91CF9108954F
:101C80002F923F924F925F926F927F928F929F928C
:101C9000AF92BF92CF92DF92EF92FF920F931F937A
:101CA000CF93DF9300D0CDB7DEB7FC0185818111E2
:101CB00018C08FEF9FEF0F900F900F90DF91CF9193
:101CC0001F910F91FF90EF90DF90CF90BF90AF905A
:101CD0009F908F907F906F905F904F903F902F904C
:101CE0000895848180FFE5CF438954896589768989
:101CF00082859385A485B585312C212C48175907F9
:101D00006A077B0719F022242394312C6F012101EB
:101D1000CE0101963C01DF011696BB83AA834114D4
:101D2000510409F4C5C0F601428553856485758563
:101D30004A01F1E09F22D6015B968D919C915C97C0
:101D40008A019B01E9E03695279517950795EA9555
:101D5000D1F71596EC91E230E9F5FC01628D738DB7
:101D6000848D958D600F711F821F931FA12C22E01F
:101D7000B22EA818B9084A145B0408F45201F601FF
:101D8000248126FD04C0A114F2E0BF0671F4009185
:101D90000002109101022091020230910302061705
:101DA00017072807390709F05EC040E00E943D068A
:101DB000882309F47ECFC40188579C4FD3019C012E
:101DC0002A0D3B1DFC012E173F0709F46CC0419101
:101DD0004D93F9CFDC011496BC90BA94B0228114D3
:101DE000910479F4B1100DC0452B462B472B69F5B2
:101DF000F6018789908DA18DB28D86839783A08708
:101E0000B187D6015B96ED91FC915C9716966D912A
:101E10007D918D919C911997625071098109910969
:101E2000258504C0660F771F881F991F2A95D2F752
:101E30000685178520893189600F711F821F931FC6
:101E40006B0D711D811D911D91CFD60116964D917F
:101E50005D916D917C9119972A813B810E94520876
:101E60008111CFCF26CF730185019401AB01BC0155
:101E700080918805909189050E94DE04882309F4E9
:101E800018CF6A0C7B1CF60182859385A485B585E5
:101E90008A0D9B1DA11DB11D82879387A487B587DD
:101EA0004A185B083CCF281B390B620E731EEBCF20
:101EB0002A94232809F0FDCE898190E0FCCEFC0114
:101EC000818D928D009711F00C94400E8FEF9FEF53
:101ED00008950F931F93CF93DF93EC01898D9A8D13
:101EE00010E000E0009799F00E94400E8C010F3F37
:101EF000100769F0898D9A8DFC01428553856485B0
:101F0000758541505109610971090E949209C80102
:101F1000DF91CF911F910F91089520916F03309120
:101F200070032817390771F490916D0380916E0347
:101F3000981741F0E0916D03F0E0EA5DFC4F80817D
:101F400090E008958FEF9FEF08950895EF92FF922C
:101F50000F931F93CF93DF93DC015C96ED90FC9081
:101F60005D97E114F10479F481E090E013969C937D
:101F70008E93129790E080E0DF91CF911F910F91A7
:101F8000FF90EF9008955196ED91FC9152975096E5
:101F90008C915097982F90950FB75E962C915E97E5
:101FA000122F127021FD6095F8942081112319F1F0
:101FB000282B2083E7012197F1F728E0462F50E0F6
:101FC000308160FF1AC0382B3083E7012197F1F789
:101FD000BA0175956795215089F7112381F08081A9
:101FE000892380830FBF5C968D919C910197F1F7B7
:101FF00081E090E0C1CF2923DCCF3923E5CF908168
:10200000892BEFCF20916F03309170032817390788
:1020100061F480916E0320916D0390E0805C9F4F8E
:10202000821B91098F739927089590E080E00895AD
:1020300020916F033091700328173907B9F49091FC
:102040006D0380916E03981789F0E0916D03F0E0C5
:10205000EA5DFC4F808120916D0330E02F5F3F4FA0
:102060002F73332720936D0390E008958FEF9FEF38
:10207000089590E080E00895CF92DF92EF92FF9272
:102080001F93CF93DF93EC0180E2689FF00111244E
:10209000E857FC4F9385917161F0842F827449F069
:1020A00080E0DF91CF911F91FF90EF90DF90CF9074
:1020B0000895142F6A8B8091000290910102A091E3
:1020C0000202B09103028E879F87A88BB98BC488C8
:1020D000D588F12CE12C7601DD24CC24CF8AD88E52
:1020E000E98EFA8E828D938DB0E0A0E0AC01BD0147
:1020F0004C295D296E297F294F8B588F698F7A8FE4
:1021000083858871B1F4848D958DA68DB78D8B8B69
:102110009C8BAD8BBE8B81E08D831F701C831E82D8
:102120001F82188619861A861B861C861D8681E0EA
:10213000B8CF803109F0B4CF9E012D5E3F4F8B8D1B
:102140009C8D0E94D308882309F4AACF84E0E4CFB1
:10215000FB0101900020E9F73197AF01461B570BB7
:10216000DC01ED91FC910280F381E02D19948F92B6
:102170009F92AF92BF92EF92FF920F931F93CF93D4
:10218000DF93CDB7DEB7A1970FB6F894DEBF0FBED1
:10219000CDBF7C01FA01CB0119A2223008F42AE05C
:1021A0008E010F5D1F4F822E912CB12CA12CBF01EF
:1021B000A50194010E94221BF901CA016A300CF5A5
:1021C000605DD8016E938D01232B242B252B79F78D
:1021D00090E080E0109721F0BD01C7010E94A81097
:1021E000A1960FB6F894DEBF0FBECDBFDF91CF91A1
:1021F0001F910F91FF90EF90BF90AF909F908F90A5
:102200000895695CDECF0F931F93CF93DF93EC01AA
:102210000E94A8108C0167E572E0CE010E94A81010
:10222000800F911FDF91CF911F910F9108953F92E1
:102230004F925F926F927F928F929F92AF92BF92D6
:10224000CF92DF92EF92FF920F931F93CF93DF9382
:1022500000D000D000D01F921F92CDB7DEB77C0116
:10226000FE013196CE010C966F0130E23193E817F2
:10227000F907E1F7DA0130E087E09D91B92E992363
:1022800009F43CC09E32F1F48A30C9F480E02B9608
:102290000FB6F894DEBF0FBECDBFDF91CF911F9177
:1022A0000F91FF90EF90DF90CF90BF90AF909F90F5
:1022B0008F907F906F905F904F903F90089538E09F
:1022C0008AE0DBCFECE8F1E04491442321F0319641
:1022D0009413FACFDBCF8317C8F24FED490F4E3579
:1022E000A8F64FE9490F4A3118F440EEB42EB90E62
:1022F000F601E30FF11DB0823F5FBFCF89818032CD
:1023000029F2322E8B01DB015B968D919C915C97BB
:10231000F701948F838F16961D921D921D921C9229
:102320001997FB011286138614861586F80182859B
:102330009385A485B58543895489658976898417F1
:102340009507A607B70708F04DC025E0B695A795F5
:10235000979587952A95D1F7F82FFF70AF2ED80162
:1023600015968C91823008F491CFC8010E94400EDE
:1023700097FD8CCFF80182859385A485B5854F960E
:10238000A11DB11D82879387A487B587F0E2AF9E18
:10239000B001112468577C4F6115710509F476CF9F
:1023A000DB018C91882341F0853E09F062C0BB209F
:1023B00029F0BB24B394BACFB1100EC0F701A28AA2
:1023C0008091000290910102A0910202B09103025B
:1023D00086879787A08BB18BDB018C918111E9CF28
:1023E000BB24B394832D8271823109F04FCFBB207F
:1023F00009F44DC0F701668577858089918941E0B0
:102400000E943D06882309F441CFD70152968C9152
:10241000B0E28B9FC001112488579C4F009709F4AC
:1024200035CFFC013A9626E1DF011D922A95E9F7A6
:102430002BE0F601DC0101900D922A95E1F721E2F3
:1024400038E2FC01318B208B40E058E0578746870B
:10245000338B228B318F208F578B468B81E00E94EC
:102460001206882309F412CF432DD70152966C919E
:102470000AC04BE050E0C6010E948B1C892B09F07A
:1024800055CF432D6A2DC7010E943C1000CFF801A3
:102490008581823009F4FACEC8010E94260A882379
:1024A00009F4F4CED8015B96ED91FC915C971696F9
:1024B0008D909D90AD90BC901997B2E08B1A9108C9
:1024C000A108B108858504C0880C991CAA1CBB1CF6
:1024D0008A95D2F786859785A089B189880E991E3D
:1024E000AA1EBB1E848124013501480E511C611CAB
:1024F000711C84149504A604B70409F1E1E04E1A96
:1025000051086108710881E00E941206882309F4CD
:10251000BDCEE8E8F3E0119288E895E08E179F07BA
:10252000D1F7409200025092010260920202709232
:10253000030280916803816080936803DACFD80139
:102540005B96ED91FC91258580E092E0A0E0B0E003
:1025500004C0880F991FAA1FBB1F2A95D2F7F80144
:102560004389548965897689840F951FA61FB71FF3
:10257000838B948BA58BB68BD70152961C9288E8DF
:1025800093E04FCFEF92FF920F931F93CF93DF9380
:10259000EC017B018A011B821A8288EE93E0A0E0A5
:1025A000B0E08C839D83AE83BF8387E392E0998301
:1025B00088838DE190E00E94661B9A8F898F009737
:1025C00079F02DE1F701DC0101900D922A95E1F7F8
:1025D0004CE050E0B801CE010C960E94A31C188E6E
:1025E000DF91CF911F910F91FF90EF9008952F925F
:1025F0003F924F925F926F927F928F929F92AF9293
:10260000BF92CF92DF92EF92FF920F931F93CF93DF
:10261000DF93CDB7DEB7C456D1090FB6F894DEBF4D
:102620000FBECDBF6C013B0119A218A28BE292E054
:102630009F8F8E8F1BA21C821B829A8389831E828E
:102640004E018EE1880E911CC4010E943E09830157
:10265000FE0131967F0154012F016FE270E0C80145
:102660000E94981C009709F45AC0F80120812F326B
:1026700069F40F5F1F4F9E2D8F2D7501A92EB82E67
:102680009A2D8B2D5701E92EF82EE7CF801B8D3028
:1026900008F08CE0282E312CA101B801CE01885A17
:1026A0009F4F0E94A31CE8E5F0E0EC0FFD1FE20D38
:1026B000F31D1082C7010E94CA0BF7018581882390
:1026C000F1F01EAE1DAE8BE292E09CAF8BAF219677
:1026D0001FAE219710E000E0060D171DF801808164
:1026E000811125C0BE01655C7F4FC2010E94830D30
:1026F0004AE552E0B201C6010E94C21236C021E092
:10270000AE01485A5F4FB501C7010E9417118823D7
:10271000C1F2020D131DC5010E94CA0BB1CF0619EB
:102720001709B501CE01CB960E94830DD5CF19A212
:1027300018A28BE292E09F8F8E8F1BA221968FAD05
:10274000219781112DC0F6011382128288EE93E049
:10275000A0E0B0E084839583A683B78387E392E00B
:1027600091838083128E118E1486C601CC59DF4F5F
:102770000FB6F894DEBF0FBECDBFDF91CF911F9192
:102780000F91FF90EF90DF90CF90BF90AF909F9010
:102790008F907F906F905F904F903F902F90089513
:1027A00027E1A801BE01655C7F4FC4010E9417119B
:1027B000882349F2CE01CB960E94CA0B49A95AA997
:1027C0006BA97CA9C4010E949209B401C2010E94B4
:1027D000830DA8018FCF1F920F920FB60F92112475
:1027E0002F933F938F939F93AF93BF9380918003D9
:1027F00090918103A0918203B091830330917F0374
:1028000023E0230F2D3758F50196A11DB11D20930C
:102810007F038093800390938103A0938203B093FE
:1028200083038091840390918503A0918603B091E6
:1028300087030196A11DB11D8093840390938503A6
:10284000A0938603B0938703BF91AF919F918F911F
:102850003F912F910F900FBE0F901F90189526E873
:10286000230F0296A11DB11DD2CF1F920F920FB65A
:102870000F9211240BB60F922F933F934F935F93B8
:102880006F937F938F939F93AF93BF93EF93FF9338
:102890008AE895E00E947203FF91EF91BF91AF919A
:1028A0009F918F917F916F915F914F913F912F9168
:1028B0000F900BBE0F900FBE0F901F9018951F9298
:1028C0000F920FB60F9211240BB60F922F938F9386
:1028D0009F93EF93FF93E0919A05F0919B05808180
:1028E000E091A005F091A10582FD1DC0908180912D
:1028F000A3058F5F8F732091A405821741F0E091AB
:10290000A305F0E0E657FA4F958F8093A305FF915A
:10291000EF919F918F912F910F900BBE0F900FBE53
:102920000F901F9018958081F2CF1F920F920FB6D3
:102930000F9211240BB60F922F933F934F935F93F7
:102940006F937F938F939F93AF93BF93EF93FF9377
:10295000E0916F03F0917003309749F0A685B78539
:102960008585968D91FF16C09C918923B1F4FF91C6
:10297000EF91BF91AF919F918F917F916F915F91F7
:102980004F913F912F910F900BBE0F900FBE0F9064
:102990001F9018959C91892351F7A389B4899C9124
:1029A0008589809589238C93868997890197F1F78A
:1029B000608D718DA685B785558538E020E0CB0107
:1029C0000197F1F7822F90E095958795282F4C91EC
:1029D000452309F02068315091F7868D81FD2095BF
:1029E00080916E0390E001968F73992730916D036B
:1029F000381799F0A0916E03B0E0AA5DBC4F2C93FC
:102A000080936E03828D938D0197F1F7A389B4892A
:102A10008C919589892B8C93AACF868D8160868F26
:102A2000F1CF10928D0510928C0588EE93E0A0E016
:102A3000B0E080938E0590938F05A0939005B0939E
:102A4000910529E132E030938B0520938A0525EC2E
:102A500030E0309397052093960524EC30E03093D6
:102A600099052093980520EC30E030939B05209346
:102A70009A0521EC30E030939D0520939C0522ECD3
:102A800030E030939F0520939E0526EC30E0309394
:102A9000A1052093A0051092A3051092A405109201
:102AA000A5051092A60520E520932706109228067A
:102AB00010922E0610922F061092320610923406B3
:102AC00042E050E060E070E04093350650933606F7
:102AD000609337067093380610924C061092560693
:102AE000109255062BE232E03093540620935306A1
:102AF000109258061092900610928F0680939106BD
:102B000090939206A0939306B093940689E492E082
:102B100090938E0680938D061092A4061092A306C1
:102B20001092A6061092A5061092A8061092A7066B
:102B30001092AA061092A9066091AB066E7F6D7F77
:102B40006093AB066695617081E0682783E00E9420
:102B5000310261E083E00E945F02E9E7F2E0E49184
:102B6000E0939D06E3E3F2E0E491F0E0EE0FFF1F57
:102B7000EA5EFD4F8591949190939F0680939E0607
:102B800060E082E00E945F028091AB0681FD04C09C
:102B900061E082E00E94310282E080939906E8E7DA
:102BA000F2E0E491E0939A06E2E3F2E0E491F0E0EF
:102BB000EE0FFF1FE450FE4F8591949190939C0679
:102BC00080939B06109275061092740688EE93E02F
:102BD000A0E0B0E08093760690937706A093780605
:102BE000B093790687E392E0909373068093720620
:102BF00010928C0610928B0610927E060895CF9349
:102C0000DF93CDB7DEB7C857D1090FB6F894DEBF52
:102C10000FBECDBF789484B5826084BD84B58160D9
:102C200084BD85B5826085BD85B5816085BD809197
:102C30006E00816080936E0010928100809181000F
:102C40008260809381008091810081608093810007
:102C5000809180008160809380008091B1008460C9
:102C60008093B1008091B00081608093B00080912A
:102C700091008260809391008091910081608093A7
:102C80009100809190008160809390008091A100DC
:102C900082608093A1008091A10081608093A10057
:102CA0008091A00081608093A000809121018260CA
:102CB0008093210180912101816080932101809185
:102CC000200181608093200180917A00846080934C
:102CD0007A0080917A00826080937A0080917A00F5
:102CE000816080937A0080917A00806880937A0076
:102CF0001092C100E0919A05F0919B0582E08083DB
:102D0000E0919605F09197051082E0919805F09179
:102D100099058FEC80831092A205E0919E05F091B9
:102D20009F0586E08083E0919C05F0919D05808160
:102D300080618083E0919C05F0919D058081886091
:102D40008083E0919C05F0919D058081806880835F
:102D5000E0919C05F0919D0580818F7D808310928C
:102D6000A8061092A7061092A6061092A506109229
:102D7000A4061092A3068EE393E09093AA06809394
:102D8000A9068091990696EF980F943048F02EECA2
:102D9000280F243028F022EC280F283008F061C0DA
:102DA0002DE831E03093A4062093A3062CE333E012
:102DB0003093A6062093A50624E632E03093A806B9
:102DC0002093A706943050F02EEC280F243030F0DA
:102DD00022EC280FF0E0E0E0283010F4E8E6F0E024
:102DE0002081943028F032EC380F383008F410C2CB
:102DF00031E0232B943048F09EEC980F943028F06B
:102E00008E53F0E0E0E0883010F4E8E6F0E0208354
:102E10002091990636EF320F343008F4FBC18EEC66
:102E2000820F843008F4F6C182EC820F883008F0FB
:102E3000F4C18DE690E09093A1068093A006343013
:102E400008F0EEC12650330B81E001C0880F2A95AF
:102E5000EAF78093A2068091A9069091AA060197AD
:102E6000F1F78091A7069091A806892B49F1E0918E
:102E70006F03F091700326E0ED38F20709F1309707
:102E800039F0A389B4899C918589809589238C9395
:102E90008091AB068E7F8093AB0610926E031092EA
:102EA0006D038DE896E09093700380936F03E0913B
:102EB000A006F091A10680819091A206892B8083C3
:102EC00061E088E00E945F0261E087E00E945F02AB
:102ED00062E080E10E945F0280915806882321F021
:102EE00083E596E00E94CA0B1092340610923206D7
:102EF00010922F0610922E0684E080932D060E94D9
:102F0000F2028B0161E080912D060E945F0261E078
:102F100080912D060E943102FFB6F89480917103D2
:102F2000811127C0E5E6F2E08491EBEAF2E09491AA
:102F3000E82FF0E0EE0FFF1FE456FE4FA591B4918D
:102F4000EC91E92321F461E085E30E94310261E024
:102F500085E30E945F028CB580618CBD8CB5806476
:102F60008CBD61E084E30E945F0261E083E30E9424
:102F70005F02809171038F5F80937103FFBE82E5D2
:102F800080932706109228068091270690912806A4
:102F90000E9468047AE0F72E8FEF0E944304FA94AF
:102FA000F110FACF89E296E00E946B0420E030E055
:102FB000A90160E089E296E00E948104F82E8093E6
:102FC000330681E0F81609F440C10E94F202601B4A
:102FD000710B613D774050F381E080932E0689E2CA
:102FE00096E00E9438046CE572E08AE895E00E9461
:102FF000031196EC292E91E0392E2BE7C22E22E008
:10300000D22E7E012EE1E20EF11CF1018491E6E860
:10301000F2E01491E0E4F2E00491011172C28091B7
:10302000040281117FC28093040261E087E00E9464
:10303000310261E088E00E9431026AE070E080E0E5
:1030400090E00E94C00248E050E06DE072E08DE840
:1030500096E00E94FE0260E087E00E94310260E09C
:1030600088E00E9431026AE070E080E090E00E9417
:10307000C0020E94F2022B013C018DE896E00E9402
:10308000021007970CF475C207E713E0712C8DE866
:1030900096E00E940210892B19F088E078127CC219
:1030A00067E572E08AE895E00E94A81094E0971521
:1030B00008F0A5C000917A0310917B031027012727
:1030C000102763EF72E08AE895E00E94A8102801BB
:1030D000012E000C660877082AE0B301A20117FF51
:1030E0000DC06DE28AE895E00E94940344275527BD
:1030F000BA0144195509660977092AE08AE895E07A
:103100000E94B71065E073E08AE895E00E94031121
:1031100080917603882309F472C080910502909112
:10312000060201979F938F93DF92CF92FF92EF92C7
:103130000E94B21CB701CE0101960E94F712CE0187
:1031400001960E949301E0918B06F0918C060F90FE
:103150000F900F900F900F900F90309709F434C29A
:103160008581882309F430C20E94F2022091720303
:103170003091730340917403509175034B015C01CE
:10318000821A930AA40AB50AB501A4012AE082E7CB
:1031900096E00E94B7106CE073E082E796E00E9430
:1031A000A8102AE0B301A20117FF0DC06DE282E76B
:1031B00096E00E942A0E44275527BA014419550962
:1031C000660977092AE082E796E00E94B71067E572
:1031D00072E082E796E00E94A81080918B069091A1
:1031E0008C06009761F00E94CA0B80918B0690912B
:1031F0008C060E94021C10928C0610928B0668EBC3
:103200007BE080E090E00E94C0020E940104FDCEBD
:1032100034E0EFCD8BE690E00ECE90E080E00BCE78
:1032200088E0223309F415CE84E0233309F411CE6B
:1032300082E0243309F40DCE82EC820F883018F43A
:103240002E53330B01CE81E004CE2AEA31E040E078
:1032500050E068E089E296E00E94810482FF2AC083
:10326000F092340680913406C12CD12CE12C50E42C
:10327000F52E823019F0C12CD12C760120E030E0FF
:10328000A90167E389E296E00E948104A701960103
:1032900069E289E296E00E948104809333068823E4
:1032A000D1F00E94F202601B710B613D774030F358
:1032B00088E093CE64E0F62E0E944A0480933306A1
:1032C000FA94F110F9CF8A3A11F082E086CE82E0CA
:1032D00080933406C7CF809134068230D1F420E049
:1032E00030E0A9016AE389E296E00E948104882324
:1032F00011F086E072CE0E944A04807C803C19F472
:1033000083E0809334060E944A040E944A040E948B
:103310004A0489E296E00E94380480E580932706FB
:103320001092280681E00E948706882309F48EC047
:1033300083E596E00E943E09882309F454CE3BE7DA
:10334000632E32E0732E7E01F8E5EF0EF11C4BE2A6
:10335000A42E42E0B42E809106028F938091050244
:103360008F937F926F92FF92EF920E94B21C809196
:103370000502909106020196909306028093050241
:103380001EAE1DAEBCAEABAE21961FAE219719A2EC
:1033900018A2BF8EAE8E1BA20F900F900F900F90B1
:1033A0000F900F90512C412CCE01CB966C0103E570
:1033B00016E0852D942DF701E80FF91F20812F329B
:1033C00009F40196D701A80FB91FFE01E459FF4F78
:1033D00030E020E04F014D914F3249F0442339F065
:1033E00001962F5F3F4F41932C303105A1F7280DF7
:1033F000391DF9011082F701E80FF91F20812F32E2
:1034000009F40196582E492E8E0D9F1DFC01308027
:103410001C821B82BA82A9821E8221E0A401B8010B
:10342000CE0101960E941711882309F4D4C0CE0161
:1034300001960E94CA0B311010C026E00335120716
:1034400009F489CFC8010E94CA0B85CF80E00E9491
:103450008706882309F4C7CD6BCFF60185818111DA
:10346000CFC021E0A401B801C6010E941711982E17
:10347000F6E003351F0709F4B7C0C8010E94CA0B64
:103480009110B8C0B701CE0101960E94F712CE018B
:1034900001960E949301E0918B06F0918C06309783
:1034A00069F18581882351F16EE872E082E796E048
:1034B0000E94031180918B0690918C06009761F019
:1034C0000E94CA0B80918B0690918C060E94021C70
:1034D00010928C0610928B066DEA72E08AE895E0F5
:1034E0000E94A810B7018AE895E00E94031168EED7
:1034F00073E080E090E00E94C0027BCD6AEB72E056
:10350000F2CF81110E94CA01E02FF0E0EE0FFF1F01
:10351000E450FE4FA591B4918C91182309F47FCD0E
:1035200081E081CD80917603F1E08F27809376034F
:103530008823C1F06FEC72E08AE895E00E940311E5
:103540000E94F2026093720370937303809374037A
:103550009093750368EC70E080E090E00E94C002F8
:1035600080E061CD62EE72E08AE895E00E9403118E
:10357000F1CF0E94F2026419750986099709683E25
:1035800073408105910508F07FCD61E070E080E037
:1035900090E00E94C00271CD8DE896E00E94181064
:1035A000F80181938F01482F50E070E060E020E146
:1035B0008AE895E00E94B71063E073E08AE895E03E
:1035C0000E94A810739463CD6EE073E08AE895E0E2
:1035D0000E94031114CE26E00335120709F452CFDE
:1035E000C8010E94CA0B4ECF882309F44BCF8E012D
:1035F000025E1F4F902F812F8601C92ED82ED9CE63
:1036000086E00335180709F43DCFEACF89E492E05C
:1036100090938E0680938D0680916F039091700336
:103620008D58964071F4E091A006F091A10690812A
:103630008091A20680958923808310927003109256
:103640006F030895A1E21A2EAA1BBB1BFD010DC03A
:10365000AA1FBB1FEE1FFF1FA217B307E407F50742
:1036600020F0A21BB30BE40BF50B661F771F881F1E
:10367000991F1A9469F760957095809590959B01B4
:10368000AC01BD01CF010895EE0FFF1F881F8BBF56
:103690000790F691E02D19940E94571BA59F900D5D
:1036A000B49F900DA49F800D911D11240895A29F99
:1036B000B001B39FC001A39F700D811D1124911D06
:1036C000B29F700D811D1124911D08950F931F93BA
:1036D000CF93DF938230910510F482E090E0E09187
:1036E000AE06F091AF0630E020E0B0E0A0E0309709
:1036F00099F42115310509F44AC0281B390B2430EF
:103700003105D8F58A819B816115710589F1FB012D
:1037100093838283FE0111C0408151810281138114
:1037200048175907E0F04817590799F4109761F0C6
:1037300012960C93129713961C933296CF01DF9139
:10374000CF911F910F9108950093AE061093AF068D
:10375000F4CF2115310551F04217530738F0A90174
:10376000DB019A01BD01DF01F801C1CFEF01F9CF03
:103770009093AF068093AE06CDCFFE01E20FF31F0C
:10378000819391932250310939832883D7CF209197
:10379000AC063091AD06232B41F420910902309103
:1037A0000A023093AD062093AC06209107023091B7
:1037B00008022115310541F42DB73EB740910B02A7
:1037C00050910C02241B350BE091AC06F091AD0634
:1037D000E217F307A0F42E1B3F0B2817390778F0E8
:1037E000AC014E5F5F4F2417350748F04E0F5F1F47
:1037F0005093AD064093AC06819391939FCFF0E038
:10380000E0E09CCFCF93DF930097E9F0FC01329783
:1038100013821282A091AE06B091AF06ED0130E0A6
:1038200020E01097A1F420813181820F931F209115
:10383000AC063091AD062817390709F061C0F09346
:10384000AD06E093AC06DF91CF910895EA01CE1763
:10385000DF07E8F54A815B819E0141155105B1F70B
:10386000E901FB83EA8349915991C40FD51FEC17F5
:10387000FD0761F4808191810296840F951FE90113
:1038800099838883828193819B838A83F0E0E0E03F
:1038900012968D919C9113970097B9F52D913C91BB
:1038A0001197CD010296820F931F2091AC063091A3
:1038B000AD062817390739F6309751F51092AF0643
:1038C0001092AE06B093AD06A093AC06BCCFD383E6
:1038D000C28340815181840F951FC817D90761F4B5
:1038E0004E5F5F4F88819981480F591F51834083F4
:1038F0008A819B81938382832115310509F0B0CFA2
:10390000F093AF06E093AE069ECFFD01DC01C0CF81
:1039100013821282D7CFFB01DC0104C08D9101908C
:10392000801921F441505040C8F7881B990B089525
:10393000FC018191861721F08823D9F799270895F2
:103940003197CF010895FB01DC014150504048F010
:1039500001900D920020C9F701C01D9241505040C6
:10396000E0F708950F931F93CF93DF93CDB7DEB7A2
:103970002E970FB6F894DEBF0FBECDBF0E891F89FC
:1039800086E08C831A8309838FEF9FE79E838D8364
:10399000AE01465E5F4F688D798DCE0101960E9423
:1039A000E21C2F813885020F131FF80110822E961A
:1039B0000FB6F894DEBF0FBECDBFDF91CF911F9140
:1039C0000F9108952F923F924F925F926F927F9244
:1039D0008F929F92AF92BF92CF92DF92EF92FF921F
:1039E0000F931F93CF93DF9300D000D000D01F928E
:1039F0001F92CDB7DEB77C013B018A01FC01178223
:103A00001682838181FFDDC1CE0101965C01F70141
:103A10009381F30193FD859193FF81913F01882369
:103A200009F453C1853239F493FD859193FF819157
:103A30003F01853229F4B70190E00E94FA1EE7CFDA
:103A4000912C212C312CFFE1F31538F08B3211F140
:103A500090F4803209F1833229F137FC3CC020ED2B
:103A6000280F2A3050F536FE20C08AE0989E200D9F
:103A70001124922E06C08D3291F0803371F7689434
:103A800030F8F30193FD859193FF81913F018111FE
:103A9000DACF21C0689431F8689432F8F2CF689494
:103AA00033F8EFCF689434F8ECCFEAE02E9E200D87
:103AB0001124222E689435F8E4CF8E3229F436FC96
:103AC00004C1689436F8DDCF8C3619F4689437F861
:103AD000D8CF8836B1F2982F9F7D95549330E0F07F
:103AE0008336A1F18337C1F1833509F063C0280122
:103AF000F2E04F0E511CF801C080D180692D70E0BA
:103B000036FC02C06FEF7FEFC6010E94E41E4C013D
:103B1000689437F882010AC00C5F1F4FFFE3F983F6
:103B200088248394912C6501E89437F833FE2DC0E6
:103B3000522C8114910471F5552009F468CFB70116
:103B400080E290E00E94FA1E5A94F6CFF80180813C
:103B500089830E5F1F4FE4CF2801F2E04F0E511C06
:103B6000F801C080D180692D70E036FC02C06FEF93
:103B70007FEFC6010E94EF1E4C018201D5CFB70135
:103B800080E290E00E94FA1E2A942814190409F099
:103B9000B0F7CECFF60137FC859137FE81916F01EA
:103BA000B70190E00E94FA1E51105A94F1E08F1A6A
:103BB0009108BFCF843619F0893609F077C0F80133
:103BC00037FE6BC060817181828193810C5F1F4FD2
:103BD000F32DFF763F2E97FF09C090958095709545
:103BE00061957F4F8F4F9F4F689437F82AE030E000
:103BF000A5010E942A1FC82ECA188C2C432C36FE01
:103C00000CC0E89440F8C91440F434FE05C032FCFE
:103C100003C0F32DFE7E4F2E892C44FEAAC0FE0168
:103C2000EC0DF11D8081803309F09CC0242D297E8C
:103C3000422E842D8870582E43FCAAC040FEA4C09A
:103C40009C2C821418F42C0C922C981844FEA6C0BC
:103C5000B70180E390E00E94FA1E42FE09C088E7A7
:103C600090E041FE02C088E590E0B7010E94FA1E94
:103C7000C91408F49FC0CA94D12C9FEFC91AD90A5D
:103C8000CA0CDB1CF60182916F01B70190E00E9423
:103C9000FA1EAC14BD04B1F74FCF60817181072EBD
:103CA000000C880B990B0E5F1F4F92CFD32CE8941A
:103CB000D4F82AE030E08537E1F1232D297FD22E98
:103CC0008F36A9F1F0F4883551F1F701868197819B
:103CD0002B960FB6F894DEBF0FBECDBFDF91CF910C
:103CE0001F910F91FF90EF90DF90CF90BF90AF901A
:103CF0009F908F907F906F905F904F903F902F900C
:103D00000895803749F0883701F7D4FE02C06894DF
:103D1000D2F820E130E00DC06894D4F8F6CF34FE3C
:103D200003C0822F8660D82E20E132E002C028E056
:103D300030E0F801D7FE0FC06081718182819381EC
:103D40000C5F1F4FA5010E942A1FC82ECA183D2CC8
:103D5000E89437F852CF6081718190E080E00E5F87
:103D60001F4FF0CF42FC02C0839463CF83948394AF
:103D700060CF842D867809F45CCFF6CFB70180E25E
:103D800090E00E94FA1E83948214C0F3512C5ECFFF
:103D9000522C5818821408F459CFF8CF842D867805
:103DA00009F466CF8BE241FE80E247FC8DE2B70169
:103DB00090E05CCFB70180E390E00E94FA1E9A94F5
:103DC00057CF8FEF9FEF84CFFC010590615070407B
:103DD0000110D8F7809590958E0F9F1F0895FC01D4
:103DE0006150704001900110D8F7809590958E0F2A
:103DF0009F1F08950F931F93CF93DF93182F092FC1
:103E0000EB018B8181FD09C01FEF0FEF812F902FF8
:103E1000DF91CF911F910F91089582FF14C02E81E1
:103E20003F818C819D81281739073CF4E881F98115
:103E3000CF0101969983888310838E819F8101969B
:103E40009F838E83E3CFE885F985812F1995892B90
:103E5000A1F3DACFFA01AA27283051F1203181F1FC
:103E6000E8946F936E7F6E5F7F4F8F4F9F4FAF4F82
:103E7000B1E03ED0B4E03CD0670F781F891F9A1F95
:103E8000A11D680F791F8A1F911DA11D6A0F711D49
:103E9000811D911DA11D20D009F468943F912AE055
:103EA000269F11243019305D3193DEF6CF0108953D
:103EB000462F4770405D4193B3E00FD0C9F7F6CF6E
:103EC000462F4F70405D4A3318F0495D31FD405236
:103ED000419302D0A9F7EACFB4E0A69597958795CC
:103EE00077956795BA95C9F70097610571050895AB
:103EF0009B01AC010A2E0694579547953795279557
:103F0000BA95C9F7620F731F841F951FA01D0895EE
:103F100011E0CFE5D1E000E006C0802FFE010E9455
:103F2000441B2196011DC036D10780E00807A9F780
:103F3000F894FFCFFFFFFFFF0101000000B00680F3
:103F400000010300000001840A000000009403FE49
:103F5000022B03E1035C033A034E030000000072EE
:103F60000DFE026C0BD30D000000002A0E0D0EFD9D
:103F70000DD40DDD0D5F0F690F00000000A60FFED0
:103F8000023910A50F021018108D0F0D0A002F0016
:103F90005344206361726420696E697469616C695D
:103FA0007A6174696F6E206661696C656421007363
:103FB000656E736F7272656164253032642E63734F
:103FC00076004D696C6C69732C536F6C6172205272
:103FD0006164696174696F6E2028572F6D5E3229A4
:103FE000004C6F6767696E6720746F3A20004572F6
:103FF000726F72206372656174696E672066696CA6
:104000006521004C6F6767696E6720737461727415
:1040100065642E2E2E004C6F6767696E672073747F
:104020006F707065642E00536F6C61722052616412
:10403000696174696F6E3A200020572F6D5E3200FF
:104040002C004572726F722077726974696E6720F6
:0A405000746F2066696C65210000A2
:020000040003F7
:10E000000D9489F10D94B2F10D94B2F10D94B2F129
:10E010000D94B2F10D94B2F10D94B2F10D94B2F1F0
:10E020000D94B2F10D94B2F10D94B2F10D94B2F1E0
:10E030000D94B2F10D94B2F10D94B2F10D94B2F1D0
:10E040000D94B2F10D94B2F10D94B2F10D94B2F1C0
:10E050000D94B2F10D94B2F10D94B2F10D94B2F1B0
:10E060000D94B2F10D94B2F10D94B2F10D94B2F1A0
:10E070000D94B2F10D94B2F10D94B2F10D94B2F190
:10E080000D94B2F10D94B2F10D94B2F10D94B2F180
:10E090000D94B2F10D94B2F10D94B2F10D94B2F170
:10E0A0000D94B2F10D94B2F10D94B2F10D94B2F160
:10E0B0000D94B2F10D94B2F10D94B2F10D94B2F150
:10E0C0000D94B2F10D94B2F10D94B2F10D94B2F140
:10E0D0000D94B2F10D94B2F10D94B2F10D94B2F130
:10E0E0000D94B2F141546D656761323536300041AF
:10E0F000726475696E6F206578706C6F72657220DE
:10E1000073746B3530305632206279204D4C530099
:10E11000426F6F746C6F616465723E004875683F52
:10E1200000436F6D70696C6564206F6E203D200048
:10E130004350552054797065202020203D20005FF9
:10E140005F4156525F415243485F5F3D2000415658
:10E1500052204C696243205665723D20004743437C
:10E160002056657273696F6E203D20004350552024
:10E1700049442020202020203D20004C6F7720663D
:10E18000757365202020203D20004869676820665F
:10E190007573652020203D200045787420667573D6
:10E1A00065202020203D20004C6F636B2066757336
:10E1B000652020203D20004D617220203720323024
:10E1C000313300312E362E3800342E332E350056A2
:10E1D00023202020414444522020206F7020636F70
:10E1E00064652020202020696E73747275637469E1
:10E1F0006F6E2061646472202020496E74657272B3
:10E20000757074006E6F20766563746F7200726A49
:10E210006D702020006A6D70200057686174207056
:10E220006F72743A00506F7274206E6F7420737541
:10E2300070706F72746564004D7573742062652030
:10E2400061206C6574746572002000577269747483
:10E25000696E672045450052656164696E672045B7
:10E26000450045452065727220636E743D00504F35
:10E27000525400303D5A65726F2061646472003FF1
:10E280003D43505520737461747300403D454550C3
:10E29000524F4D207465737400423D426C696E6B41
:10E2A000204C454400453D44756D70204545505215
:10E2B0004F4D00463D44756D7020464C415348001B
:10E2C000483D48656C70004C3D4C69737420492F83
:10E2D0004F20506F72747300513D51756974005234
:10E2E0003D44756D702052414D00563D73686F7707
:10E2F00020696E7465727275707420566563746FF0
:10E30000727300593D506F727420626C696E6B00BD
:10E310002A0011241FBECFEFD1E2DEBFCDBF01E046
:10E320000CBF12E0A0E0B2E0EEE1FDEF03E00BBFB6
:10E3300002C007900D92A030B107D9F712E0A0E01B
:10E34000B2E001C01D92AE30B107E1F70F9460F367
:10E350000D948DFE01E20EBF0FEF0DBF11241FBE05
:10E360000D9460F30D9400F020E030E040ED57E0B4
:10E3700005C0FA013197F1F72F5F3F4F2817390792
:10E38000C0F308959C01260F311DC901A0E0B0E043
:10E390002F5F3F4FABBFFC018791882361F08093D3
:10E3A000C6008091C00086FFFCCF8091C0008064D1
:10E3B0008093C000EACF08958DE08093C6008091DD
:10E3C000C00086FFFCCF8091C00080648093C000B5
:10E3D0008AE08093C6008091C00086FFFCCF8091C8
:10E3E000C00080648093C00008950F94C2F10F9420
:10E3F000DCF10895FC019081992359F09093C600B7
:10E400008091C00086FFFCCF8091C0008064809323
:10E41000C0003196992379F70895282F982F929567
:10E420009F70892F805D8A3308F0895F8093C600D2
:10E430008091C00086FFFCCF8091C00080648093F3
:10E44000C000822F8F70982F905D9A3308F0995FEB
:10E450009093C6008091C00086FFFCCF8091C000E1
:10E4600080648093C00008959C01FB01853691056E
:10E470001CF46330710594F0C90164E670E00F94F8
:10E480002EFE605D7F4F6093C6008091C00086FFC6
:10E49000FCCF8091C00080648093C0002B30310598
:10E4A00014F43297B4F0C90164E670E00F942EFEC4
:10E4B0006AE070E00F942EFE605D7F4F6093C600AF
:10E4C0008091C00086FFFCCF8091C0008064809363
:10E4D000C000C9016AE070E00F942EFEC0968093E0
:10E4E000C6008091C00086FFFCCF8091C000806490
:10E4F0008093C00008951F93182F8EE692EE60E07F
:10E500000F94C2F11093C6008091C00086FFFCCF2B
:10E510008091C00080648093C0000F94DCF11F9153
:10E5200008952F923F924F925F926F927F928F92B7
:10E530009F92AF92BF92CF92DF92EF92FF920F9392
:10E540001F93DF93CF93CDB7DEB762970FB6F894E2
:10E55000DEBF0FBECDBF382E622ECA01DB015C01CB
:10E560006D01772420E2222E2E010894411C511CBB
:10E570008BC081E0A81680E0B80681E0C80680E084
:10E58000D80628F0C601AA27BB270F940DF2BB2797
:10E59000AD2D9C2D8B2D0F940DF28A2D0F940DF225
:10E5A0002092C6008091C00086FFFCCF8091C00001
:10E5B00080648093C0009DE29093C6008091C0006B
:10E5C00086FFFCCF8091C00080648093C0002092C1
:10E5D000C6008091C00086FFFCCF8091C00080649F
:10E5E0008093C00019828601750188249924A1E0D6
:10E5F0003A1651F03A1620F0B2E03B1661F409C029
:10E600000BBFF701779007C0C7010F9477FE782EF4
:10E6100002C0F7017080872D0F940DF22092C60082
:10E620008091C00086FFFCCF8091C0008064809301
:10E63000C000872D8052F401EF70F0708F3520F408
:10E64000E40DF51D708204C0E40DF51D8EE280839B
:10E650000894E11CF11C011D111D0894811C911CE2
:10E6600090E18916910409F0C2CF80E190E0A0E02A
:10E67000B0E0A80EB91ECA1EDB1E198AC2010F9493
:10E68000FAF10F94DCF16A94662009F072CF629679
:10E690000FB6F894DEBF0FBECDBFCF91DF911F91B3
:10E6A0000F91FF90EF90DF90CF90BF90AF909F9031
:10E6B0008F907F906F905F904F903F902F90089534
:10E6C0002F923F924F925F926F927F928F929F9282
:10E6D000AF92BF92CF92DF92EF92FF920F931F9370
:10E6E000DF93CF93CDB7DEB7CD53D1400FB6F894BB
:10E6F000DEBF0FBECDBF01E20EBF0FEF0DBF94B75F
:10E70000F894A89514BE80916000886180936000A1
:10E7100010926000789493FF05C0E0910002F091A0
:10E7200001021995279A2F9A8091C00082608093E8
:10E73000C00080E18093C40088E18093C1000000A4
:10E74000EE24FF24870144E0A42EB12CCC24DD2448
:10E7500024C0C5010197F1F70894E11CF11C011DCB
:10E76000111D21E2E2162EE4F20620E0020720E06D
:10E77000120718F031E0C32ED12CC801B70127ECE5
:10E780003BE140E050E00F9441FE611571058105C9
:10E79000910519F485B1805885B98091C00087FD35
:10E7A00003C0C114D104A9F2A6014F5F5F4FC25E3E
:10E7B000DE4F59834883CE51D140C25EDE4F8881FF
:10E7C0009981CE51D140019711F00D9410FEC05D9A
:10E7D000DE4F19821882C053D14060E0C15DDE4F28
:10E7E0001882CF52D14088249924C35DDE4F19820C
:10E7F0001882CD52D140C05EDE4F188219821A8233
:10E800001B82C052D140CE5CDE4F188219821A8220
:10E810001B82C253D140EE24FF2487010BBFF701B6
:10E8200007911691C45CDE4F19830883CC53D14005
:10E830000D940BFEC25EDE4F28813981CE51D1404E
:10E840002130310509F52091C600C25EDE4F1982E4
:10E850001882CE51D14022C02F5F3F4F4F4F5F4FA4
:10E86000213082E138078AE7480780E0580780F0C6
:10E87000C45CDE4FE881F981CC53D140EF5FFF4F9C
:10E8800019F0EE27FF27099420E030E040E050E047
:10E890008091C00087FFE0CF2091C600C35DDE4FAE
:10E8A00048815981CD52D1404F5F5F4FC35DDE4FEC
:10E8B00059834883CD52D140213209F063C64A3092
:10E8C000510508F05FC60894811C911C53E0851621
:10E8D000910409F059C600E010E018C081E280936D
:10E8E000C6008091C00086FFFCCF8091C00080648C
:10E8F0008093C0002F5F3F4F2931310579F70F9486
:10E90000DCF10F5F1F4F0530110519F020E030E0FA
:10E91000E5CF10920A0210920B0210920C02109294
:10E920000D02109206021092070210920802109235
:10E930000902109202021092030210920402109235
:10E9400005028FEE90EE60E00F94F5F180E191EE1C
:10E9500060E00F94C2F18091C00087FFFCCF9091DE
:10E96000C600903608F09F759032B8F09093C600BC
:10E970008091C00086FFFCCF8091C00080648093AE
:10E98000C000A0E2A093C6008091C00086FFFCCF2B
:10E990008091C00080648093C000983409F4D7C18E
:10E9A0009934B8F4923409F459C1933458F490333B
:10E9B00019F1903308F4E3C59F33A1F1903409F0C5
:10E9C000DEC5BDC0953409F470C1963409F0D7C5D1
:10E9D00098C1923509F42BC2933538F49C3409F46C
:10E9E000F5C1913509F0CBC518C2963509F445C279
:10E9F000993509F0C4C567C483E792EE62E00F94CD
:10EA0000F5F110920602109207021092080210927D
:10EA1000090210920A0210920B0210920C0210923C
:10EA20000D0213C18FE792EE62E00F94F5F18FEEC5
:10EA300090EE60E00F94F5F181E291EE60E00F94CA
:10EA4000C2F187EB91EE60E00F94F5F180E391EE77
:10EA500060E00F94C2F184EE90EE60E00F94F5F167
:10EA60008FE391EE60E00F94C2F186E090E061E008
:10EA700070E00F9434F20F94DCF18DE591EE60E0DC
:10EA80000F94C2F189EC91EE60E00F94F5F18EE401
:10EA900091EE60E00F94C2F183EC91EE60E00F9490
:10EAA000F5F18CE691EE60E00F94C2F18EE10F94E7
:10EAB0000DF288E90F940DF281E00F940DF20F949E
:10EAC000DCF18BE791EE60E00F94C2F119E0E0E039
:10EAD000F0E010935700E4918E2F0F940DF20F94F5
:10EAE000DCF18AE891EE60E00F94C2F1E3E0F0E03F
:10EAF00010935700E4918E2F0F940DF20F94DCF1D8
:10EB000089E991EE60E00F94C2F1E2E0F0E0109349
:10EB10005700E4918E2F0F940DF20F94DCF188EAE8
:10EB200091EE60E00F94C2F1E1E0F0E01093570045
:10EB30001491812F0F940DF20F94DCF107CF8BE825
:10EB400092EE62E00F94F5F18BE492EE60E00F94A8
:10EB5000F5F10F94DCF100E010E019C0C8016F2D51
:10EB60000F947FFEFF2031F489E492EE60E00F9471
:10EB7000C2F10BC0F092C6008091C00086FFFCCFAE
:10EB80008091C00080648093C0000F5F1F4FC80158
:10EB900081519F41A0E0B0E0ABBFFC01F790BAE229
:10EBA000FB1621F0E2E000301E07C1F60F94DCF105
:10EBB0000F94DCF187E592EE60E00F94F5F10F948D
:10EBC000DCF1CC24DD2400E010E01EC0C8010F946D
:10EBD00077FEF82E882331F489E492EE60E00F94FA
:10EBE000C2F10BC08093C6008091C00086FFFCCFAD
:10EBF0008091C00080648093C000FE1419F00894D6
:10EC0000C11CD11C0F5F1F4FC80181519F41A0E063
:10EC1000B0E0ABBFFC01E790FAE2EF1621F022E092
:10EC20000030120799F60F94DCF10F94DCF182E6C4
:10EC300092EE60E00F94C2F1C60161E070E00F94C3
:10EC400034F20F94DCF10F94DCF110920202109276
:10EC50000302109204021092050278CE89E992EE26
:10EC600062E00F94F5F1279A2F9A16C02F9880E052
:10EC700090E0E0EDF7E03197F1F7019684369105E9
:10EC8000C1F72F9A80E090E0E0EDF7E03197F1F7DF
:10EC9000019684369105C1F78091C00087FFE6CFC9
:10ECA0008091C00087FFFCCF64C485EA92EE62E0E9
:10ECB0000F94F5F140910202509103026091040219
:10ECC0007091050281E020E10F9491F2809102029F
:10ECD00090910302A0910402B091050280509F4FD1
:10ECE000AF4FBF4F8093020290930302A0930402A0
:10ECF000B093050280509041A040B04008F426CE69
:10ED0000A4CF83EB92EE62E00F94F5F140910602FE
:10ED100050910702609108027091090280E020E1A1
:10ED20000F9491F28091060290910702A09108023F
:10ED3000B091090280509F4FAF4FBF4F80930602A2
:10ED400090930702A0930802B0930902FFCD80ECD4
:10ED500092EE62E00F94F5F183E792EE60E00F949B
:10ED6000F5F18FE792EE60E00F94F5F18BE892EE0B
:10ED700060E00F94F5F189E992EE60E00F94F5F10F
:10ED800085EA92EE60E00F94F5F183EB92EE60E09D
:10ED90000F94F5F180EC92EE60E00F94F5F187ECC2
:10EDA00092EE60E00F94F5F188ED92EE60E00F9442
:10EDB000F5F18FED92EE60E00F94F5F18AEE92EEB0
:10EDC00060E00F94F5F183E093EEBDCD87EC92EE19
:10EDD00062E00F94F5F181E40F947BF282E40F94EA
:10EDE0007BF283E40F947BF284E40F947BF285E45E
:10EDF0000F947BF286E40F947BF287E40F947BF20E
:10EE000088E40F947BF28AE40F947BF28BE40F94F6
:10EE10007BF28CE40F947BF299CD88ED92EE62E068
:10EE20000F94F5F1772473948824992409C48FED05
:10EE300092EE62E00F94F5F140910A0250910B02BC
:10EE400060910C0270910D0282E020E10F9491F22A
:10EE500080910A0290910B02A0910C02B0910D02D8
:10EE600080509F4FAF4FBF4F80930A0290930B0289
:10EE7000A0930C02B0930D0269CD8AEE92EE62E08F
:10EE80000F94F5F184EE90EE60E00F94F5F18FECC5
:10EE900091EE60E00F94F5F1662477244301CC5D98
:10EEA000DE4F19821882C452D140D401C301B695F5
:10EEB000A79597958795CA5DDE4F88839983AA8326
:10EEC000BB83C652D140CC5DDE4FA881B981C4520C
:10EED000D1401196CC5DDE4FB983A883C452D14096
:10EEE000CD0162E070E00F9434F2B0E2B093C6005E
:10EEF0008091C00086FFFCCF8091C0008064809329
:10EF0000C000EDE2E093C6008091C00086FFFCCF18
:10EF10008091C00080648093C000F0E2F093C6004E
:10EF20008091C00086FFFCCF8091C00080648093F8
:10EF3000C000CA5DDE4FE880F9800A811B81C6529D
:10EF4000D140BB27A12F902F8F2D0F940DF2CA5DBA
:10EF5000DE4F8881C652D1400F940DF2B0E2FB2EF5
:10EF6000F092C6008091C00086FFFCCF8091C00067
:10EF700080648093C0000DE30093C6008091C000C0
:10EF800086FFFCCF8091C00080648093C00010E2B7
:10EF90001093C6008091C00086FFFCCF8091C00016
:10EFA00080648093C0008BBEF3012791C65DDE4F65
:10EFB0002883CA52D140A22EBB24CC24DD2408943D
:10EFC000611C711C811C911C8BBEF3018791282E42
:10EFD0003324442455240894611C711C811C911C09
:10EFE0008BBEF3013791C55DDE4F3883CB52D140E4
:10EFF0000894611C711C811C911C8BBEF30147910C
:10F00000C45DDE4F4883CC52D140ADEFEA2EAFEF66
:10F01000FA2EAFEF0A2FAFEF1A2F6E0C7F1C801E57
:10F02000911E142D032DF22CEE24EA0CFB1C0C1D5A
:10F030001D1D0F940DF220E22093C6008091C000A8
:10F0400086FFFCCF8091C00080648093C000C65DC5
:10F05000DE4F8881CA52D1400F940DF230E23093D6
:10F06000C6008091C00086FFFCCF8091C000806404
:10F070008093C000C45DDE4F8881CC52D1400F9494
:10F080000DF240E24093C6008091C00086FFFCCFA5
:10F090008091C00080648093C000C55DDE4F888190
:10F0A000CB52D1400F940DF250E25093C6008091A4
:10F0B000C00086FFFCCF8091C00080648093C000B8
:10F0C0008FEFE8168FEFF80680E0080780E018075A
:10F0D00031F484E092EE60E00F94C2F1DFC0D80119
:10F0E000C7018070907CA070B0708050904CA040A0
:10F0F000B040D1F52FEF3FE340E050E0E222F322B1
:10F1000004231523CA5DDE4FA880B980CA80DB8046
:10F11000C652D140AE0CBF1CC01ED11EAA0CBB1CD7
:10F12000CC1CDD1C8EE092EE60E00F94C2F1BB2798
:10F13000A12F902F8F2D0F940DF28E2D0F940DF285
:10F1400030E23093C6008091C00086FFFCCF8091F2
:10F15000C00080648093C0004EE34093C60080915D
:10F16000C00086FFFCCF87C08EE09EEFA0E0B0E03D
:10F17000E822F9220A231B239CE0E91694E9F90608
:10F1800090E0090790E0190709F088C0C45DDE4FE0
:10F19000A881CC52D140EA2EFF2400E010E0102FCD
:10F1A0000F2DFE2CEE24C55DDE4FB881CB52D14031
:10F1B000EB0EF11C011D111DD601C501817090706F
:10F1C000A070B070DC0199278827E80EF91E0A1F8D
:10F1D0001B1F20EF30E040E050E0A222B322C42207
:10F1E000D52241E1AA0CBB1CCC1CDD1C4A95D1F7F1
:10F1F000EA0CFB1C0C1D1D1D81E090E0A0E0B0E0BE
:10F20000282239224A225B2235E1220C331C441C7D
:10F21000551C3A95D1F7E20CF31C041D151D57013E
:10F220006801AA0CBB1CCC1CDD1C85E192EE60E0E1
:10F230000F94C2F1C801AA27BB270F940DF2BB2778
:10F24000A12F902F8F2D0F940DF28E2D0F940DF274
:10F2500090E29093C6008091C00086FFFCCF809121
:10F26000C00080648093C000AEE3A093C60080918C
:10F27000C00086FFFCCF8091C00080648093C000F6
:10F28000C601AA27BB270F940DF2BB27AD2D9C2DDD
:10F290008B2D0F940DF28A2D0F940DF20F94DCF14B
:10F2A000CC5DDE4FE881F981C452D140F99709F471
:10F2B0004DCBF4E0EF2EF12C012D112D6E0C7F1CA7
:10F2C000801E911EF2CD83E093EE62E00F94F5F183
:10F2D0008AE192EE60E00F94C2F18091C00087FF56
:10F2E000FCCF1091C6001F751093C6008091C0001E
:10F2F00086FFFCCF8091C00080648093C0000F9493
:10F30000DCF1812F81548A3108F036C1163409F4BA
:10F3100095C0173490F4133409F44EC0143430F40B
:10F320001134F1F0123409F01DC130C0143409F465
:10F3300059C0153409F016C16BC01A3409F4C4C0A1
:10F340001B3438F4173409F48FC0183409F00AC19B
:10F35000A1C01B3409F4D2C01C3409F003C1E8C0B9
:10F360008FEF81B90DC082B1809582B980E090E0C5
:10F37000E0EDF7E03197F1F70196883C9105C1F790
:10F380008091C00087FFEFCF12B8EFC08FEF84B934
:10F390000DC085B1809585B980E090E0E0EDF7E0A3
:10F3A0003197F1F70196883C9105C1F78091C00033
:10F3B00087FFEFCF15B8D9C08FEF87B90DC088B1DF
:10F3C000809588B980E090E0E0EDF7E03197F1F7C3
:10F3D0000196883C9105C1F78091C00087FFEFCF6F
:10F3E00018B8C3C08FEF8AB90DC08BB180958BB9A7
:10F3F00080E090E0E0EDF7E03197F1F70196883C8E
:10F400009105C1F78091C00087FFEFCF1BB8ADC059
:10F410008FEF8DB90DC08EB180958EB980E090E0F0
:10F42000E0EDF7E03197F1F70196883C9105C1F7DF
:10F430008091C00087FFEFCF1EB897C08FEF80BBD1
:10F440000DC081B3809581BB80E090E0E0EDF7E0F6
:10F450003197F1F70196883C9105C1F78091C00082
:10F4600087FFEFCF11BA81C08FEF83BB0DC084B38C
:10F47000809584BB80E090E0E0EDF7E03197F1F714
:10F480000196883C9105C1F78091C00087FFEFCFBE
:10F4900014BA6BC08FEF809301010FC080910201FD
:10F4A00080958093020180E090E0E0EDF7E03197F5
:10F4B000F1F70196883C9105C1F78091C00087FF64
:10F4C000EDCF1092020151C08FEF809304010FC065
:10F4D0008091050180958093050180E090E0E0ED4A
:10F4E000F7E03197F1F70196883C9105C1F78091DB
:10F4F000C00087FFEDCF1092050137C08FEF8093DA
:10F5000007010FC08091080180958093080180E079
:10F5100090E0E0EDF7E03197F1F70196883C910536
:10F52000C1F78091C00087FFEDCF109208011DC088
:10F530008FEF80930A010FC080910B01809580931B
:10F540000B0180E090E0E0EDF7E03197F1F70196F4
:10F55000883C9105C1F78091C00087FFEDCF1092E4
:10F560000B0103C085E292EEEEC98091C00087FFD7
:10F57000FCCF8091C600EAC988E392EEE4C98CE131
:10F5800091EEE1C988249924933011F1943028F444
:10F59000913089F09230B8F408C0953061F195301F
:10F5A000F0F0963009F048C043C02B3109F042C951
:10F5B00091E06BE13FC96227C15DDE4F2883CF52E6
:10F5C000D14092E037C9B22FA0E0622793E032C960
:10F5D000822F90E0A82BB92B622794E02BC92E3004
:10F5E00009F039C3622795E0C05DDE4F19821882A9
:10F5F000C053D1401FC9E1E0F0E0EC0FFD1FC05D3A
:10F60000DE4F08811981C053D140E00FF11F2083E4
:10F610000F5F1F4FC05DDE4F19830883C053D14079
:10F6200062270A171B0709F005C9D80196E002C92D
:10F63000261709F010C303C0973009F0FBC87724E0
:10F640009981933109F412C19431C8F4963009F4C8
:10F65000D8C0973050F4923009F406C1933009F4C1
:10F660006DC0913009F059C253C0913109F477C08F
:10F67000923108F0BBC0903109F04FC2F5C098310B
:10F6800009F487C0993150F4953109F4EFC09531F0
:10F6900008F4C6C1963109F040C2C2C19A3109F4DA
:10F6A0006CC09A3108F491C09B3109F45BC09D3164
:10F6B00009F033C29D81903359F48F81882311F46E
:10F6C0009EE11CC0813011F091E018C098E916C08D
:10F6D000892F807591F0903539F4E0E0F0E089E011
:10F6E0008093570094910AC0983539F4E3E0F0E034
:10F6F00089E080935700949101C090E01A821B82A8
:10F700008D818C831D829E831F8227E030E009C299
:10F710001A8288E08B8381E48C8386E58D8382E581
:10F720008E8389E48F8383E5888780E589878FE5E9
:10F730008A8782E38B872BE030E0F3C18A818139AD
:10F7400041F0823941F0803911F48FE005C080E04A
:10F7500003C082E001C08AE01A828B8344C0772410
:10F76000739482C08D81882311F48EE12CC0813086
:10F7700011F081E028C088E926C01A82E1E0F0E0BB
:10F7800089E08093570084918B831C8224E030E0D1
:10F79000C8C18B81803589F48C81883039F4E2E0EE
:10F7A000F0E089E08093570084910DC0E0E0F0E044
:10F7B00089E080935700849106C0E3E0F0E089E09F
:10F7C0008093570084911A82DFCF8D81836C99E0FA
:10F7D000E1E0F0E0082E90935700E89507B600FCB2
:10F7E000FDCF1A821B8223E030E09BC180EC8A832C
:10F7F000CE5CDE4F188219821A821B82C253D1401E
:10F800008EC18A8190E0A0E0B0E0582F44273327D2
:10F8100022278B8190E0A0E0B0E0DC0199278827C7
:10F82000282B392B4A2B5B2B8D8190E0A0E0B0E098
:10F83000282B392B4A2B5B2B8C8190E0A0E0B0E089
:10F84000BA2FA92F982F8827282B392B4A2B5B2BCF
:10F85000220F331F441F551FC05EDE4F288339839C
:10F860004A835B83C052D1401A8259C13A81C95C34
:10F87000DE4F3883C753D140CA5CDE4F1882C6536F
:10F88000D1408B81C82EDD24CA5CDE4F488159816E
:10F89000C653D140C42AD52A933109F082C0CE5C28
:10F8A000DE4F88819981AA81BB81C253D1408050AB
:10F8B000904CA340B04030F583E0CE5CDE4FE88052
:10F8C000F9800A811B81C253D140F70100935B008C
:10F8D00080935700E89507B600FCFDCFCE5CDE4F65
:10F8E000088119812A813B81C253D14000501F4FAA
:10F8F0002F4F3F4FCE5CDE4F088319832A833B8313
:10F90000C253D140C05EDE4F488159816A817B81FC
:10F91000C052D140DE011B9631E08C9111962C91A2
:10F9200011971296C75CDE4F2883C953D140C85C3B
:10F93000DE4F1882C853D14090E0C85CDE4FE881AA
:10F94000F981C853D1408E2B9F2B0C01FA01609393
:10F950005B0030935700E89511244E5F5F4F6F4F67
:10F960007F4F0EEFE02E0FEFF02ECE0CDF1CC114F8
:10F97000D10499F685E0C05EDE4F088119812A81A5
:10F980003B81C052D140F80120935B008093570027
:10F99000E89507B600FCFDCF81E180935700E8951C
:10F9A00035C0C05EDE4F88819981AA81BB81C0527B
:10F9B000D140B695A795979587957C018601ABE0D8
:10F9C000AA2EB12CAC0EBD1E0BC0D5016D915D01F0
:10F9D000C7010F947FFE0894E11CF11C01501040F8
:10F9E0000115110591F7A60160E070E0440F551F65
:10F9F000661F771FC05EDE4FE880F9800A811B8199
:10FA0000C052D1404E0D5F1D601F711F1A82C05E33
:10FA1000DE4F488359836A837B83C052D1407FC0C5
:10FA2000FA80C55CDE4FF882CB53D140C65CDE4F16
:10FA30001882CA53D1408B81C82EDD24C65CDE4FAC
:10FA400008811981CA53D140C02AD12A1A828981DA
:10FA5000BE016D5F7F4F843121F59601C05EDE4FA0
:10FA6000E880F9800A811B81C052D1400BBFF701A9
:10FA700087919691DB018C9311969C936E5F7F4FDB
